:020000040000FA
:1000000018100010690100006D0100006F01000070
:100010007101000073010000750100000000000084
:10002000000000000000000000000000150A0000B1
:100030007901000000000000ED090000ED0400005F
:100040007F0100007F0100007F0100007F010000B0
:100050007F0100007F0100007F0100007F010000A0
:100060007F0100007F0100007F0100007F01000090
:100070007F0100007F0100007F0100007F01000080
:100080007F0100007F0100007F0100007F01000070
:100090007F0100007F0100007F0100007F01000060
:1000A0007F0100007F0100007F0100007F01000050
:1000B0007F0100007F0100007F0100007F01000040
:1000C0007F0100007F0100007F01000000F002F8C6
:1000D00000F03AF80AA090E8000C82448344AAF1A8
:1000E0000107DA4501D100F02FF8AFF2090EBAE8A6
:1000F0000F0013F0010F18BFFB1A43F0010318475C
:100100006409000084090000103A24BF78C878C14F
:10011000FAD8520724BF30C830C144BF04680C600D
:10012000704700000023002400250026103A28BF55
:1001300078C1FBD8520728BF30C148BF0B60704759
:100140001FB51FBD10B510BD00F012FC1146FFF722
:10015000F7FF00F03FF800F0C1F803B4FFF7F2FF3B
:1001600003BC00F0C5F8000008480047FEE7FEE7C2
:10017000FEE7FEE7FEE7FEE7FEE7FEE7FEE7FEE757
:1001800003480449024A044B70470000CD000000B8
:10019000180E001018100010180E001004E00120B6
:1001A0003149086000200860F9E704E001202F4988
:1001B000086000200860F9E704E001202C4908608D
:1001C00000200860F9E704E001202A4908600020C7
:1001D0000860F9E70EB500F04CFA0120002100910B
:1001E000AFF21D034202CDE901102349234800F07C
:1001F000BCF9022000210091AFF243030202CDE9D5
:1002000001101F491F4800F0B0F9012000210091A2
:10021000AFF269034202CDE901101B491B4800F00F
:10022000A4F9012002210022AFF28F03CDE90021C1
:10023000029042021649174800F097F90F4800F063
:100240008BF9104800F088F9104800F085F9114842
:1002500000F082F900F02CFA00BFFEE700BF0100B9
:10026000A0F10100FBD17047100000100C0000103D
:1002700008000010040000102401001024090010E0
:100280002403001040090010240500105C09001030
:10029000240700107809001070B505462C68A8687E
:1002A00008B9002070BDA868012801D12046F9E7EF
:1002B000206920B12069401E20612046F2E7E068F5
:1002C00020612146284600F002FB2146284600F026
:1002D000D8FA2868E6E77047704770470446AFF3DE
:1002E00000802046FFF739FF00487047B40D00102A
:1002F00001491820ABBEFEE726000200FFFFFFFF0A
:1003000020207449086000BF7248006800F0400077
:100310000028F9D003206F499C39086000206E49FD
:10032000C1F8A8016B490C31086001206949943972
:1003300008600F206849843108600120091F0860A7
:10034000AA2065498C31086055206349C1F88C00AA
:1003500000BF61488830006800F080600028F8D055
:1003600003205D4980310860AA205B49C1F88C00F8
:10037000552059498C310860002056499839086049
:1003800056485549C431086000205349C1F8C80196
:10039000514888300068C0F30160032860D14D489F
:1003A0009438006800F0030030B1012820D0022802
:1003B00039D0032853D100E000BF47488830006897
:1003C000C0F30E00401C4000454948434249D1F863
:1003D0008810C1F30741491CB0FBF1F13D489C383E
:1003E0000068C0B2401CB1FBF0F03E49086036E046
:1003F000394888300068C0F30E00401C40003A497C
:1004000048433549D1F88810C1F30741491CB0FB76
:10041000F1F130489C380068C0B2401CB1FBF0F0EC
:10042000304908601BE02C4888300068C0F30E009B
:10043000401C40004FF4FA4148432749D1F8881046
:10044000C1F30741491CB0FBF1F122489C38006818
:10045000C0B2401CB1FBF0F02249086000BF30E0A0
:100460001C489438006800F0030030B1012810D017
:10047000022819D0032823D100E000BF15489C387A
:100480000068C0B2401C1649B1FBF0F01549086085
:1004900016E010489C380068C0B2401C1249B1FBFD
:1004A000F0F0104908600BE00A489C380068C0B2C0
:1004B000401C4FF4FA41B1FBF0F00A49086000BF5C
:1004C00000BF0548006820F4704040F480400249B5
:1004D00008607047A0C10F4000C00F40DE872804AD
:1004E00000093D0000000010001BB70010B500F02F
:1004F000FEF810BD30B502464FF0E020006920F054
:1005000001004FF0E0210861104850434FF47A7128
:10051000B0FBF1F04FF0E021486148171F2100289F
:1005200007DACB061D0E0A4B00F00F04241F1D55E1
:1005300003E0CB061C0E074B1C5400BF00204FF0FD
:10054000E02188610620086130BD000040787D010F
:1005500018ED00E000E400E010B5044621466D48C7
:1005600000F045F910BD00BFFEE72DE9F04104465B
:10057000DDE90667089D01EB820CC4F800C06260EB
:10058000A760E56025614FF0000CC4F814C0C4F802
:1005900018C020684FF08078A0F1040C6046CCF8B9
:1005A0000080A0F1040C6046CCF800304FF0EE382B
:1005B000A0F1040C6046CCF800804FF0CC38A0F1DC
:1005C000040C6046CCF800804FF03338A0F1040CE6
:1005D0006046CCF800804FF02238A0F1040C604651
:1005E000CCF800804FF01138A0F1040C6046CCF834
:1005F0000080A0F1040C6046CCF800604FF0BB38DE
:10060000A0F1040C6046CCF800804FF0AA38A0F1AD
:10061000040C6046CCF800804FF09938A0F1040C2F
:100620006046CCF800804FF08838A0F1040C60469A
:10063000CCF800804FF07738A0F1040C6046CCF87D
:1006400000804FF06638A0F1040C6046CCF80080C2
:100650004FF05538A0F1040C6046CCF800804FF004
:100660004438A0F1040C6046CCF800802060BDE85E
:10067000F0810EB500F042F90020274908702749A3
:100680000860274827490860224800F051F80120F7
:100690001F210022AFF23113CDE900210290802208
:1006A00021491F48FFF761FF1D48FFF755FF0EBDA9
:1006B00010B51948007890B90120174908701548FD
:1006C00000F04EF80446FFF7E7FD184908600846B9
:1006D000006814490968884201D000F033F910BD60
:1006E00010B5044621460B4800F0A2F810BD10B525
:1006F000084800F035F80446FFF7CEFD0B490860C6
:100700000846006807490968884201D000F01AF9D4
:1007100010BD0000300C0010140000101800001074
:10072000140A00101C000010300A001020000010F5
:1007300070B50546002406E004EB440105EB81009A
:1007400000F09AF8641C202CF6DB002405E0002160
:1007500005F5C07040F82410641C012CF7DB70BD57
:1007600010B50446002300221CE004F5C07050F8C8
:100770002200A8B104F5C07050F82210080C08B18E
:10078000090C00E01033080A08B1090A00E0083338
:100790003848405C184400EB400004EB800010BD7A
:1007A0002033521C012AE0DB0020F8E72DE9F0415C
:1007B00004460E46B56805EB450004EB8007B868B3
:1007C00078B9691104F5C07050F8210005F01F02D6
:1007D0004FF00041D14008436A1104F5C07141F85F
:1007E00022003146384600F05FF8BDE8F0812DE97F
:1007F000F04104460E46B56805EB450004EB800762
:10080000B86878B9691104F5C07050F8210005F096
:100810001F024FF00041D14008436A1104F5C07136
:1008200041F822003146384600F02BF8BDE8F0814F
:100830002DE9F04104460E46B56805EB450004EB92
:1008400080073146384600F042F8B86878B9691137
:1008500004F5C07050F8210005F01F024FF0004170
:10086000D14088436A1104F5C07141F82200BDE807
:10087000F0810000240000100021016041608160CF
:10088000704782682AB900224A618A61016041602A
:1008900006E000224A6142688A6142685161416013
:1008A0008268521C8260704782682AB900224A61BD
:1008B0008A610160416006E002684A6100228A6143
:1008C0000268916101608268521C826070474A69C7
:1008D0001AB1D1E905329A6101E08A6942608A69F8
:1008E0001AB1D1E905235A6101E04A690260002288
:1008F0004A618A618268521E8260704710B5FFF7B4
:10090000FFFC012000F05AF86FF001001F210028C1
:1009100007DACA06140E144A00F00F031B1FD45442
:1009200003E0CA06130E114A135400BF0120FFF75B
:10093000E1FD4FF0E020006940F001004FF0E021C0
:10094000086110BD08481438006840F0805006491E
:1009500014390860704710B500F044F810BD10B5A8
:1009600000F042F810BD000018ED00E000E400E0E7
:100970007546FFF7B9FCAE4605006946534620F0C0
:100980000700854618B020B5FFF7FAFBBDE8204008
:100990004FF000064FF000074FF000084FF0000B3B
:1009A00021F00701AC46ACE8C009ACE8C009ACE8EE
:1009B000C009ACE8C0098D46704770472449022839
:1009C000B4BF01EB40012349084700E001E000DF2C
:1009D00001E001DFFFE77047EFF3148040F0010012
:1009E00080F3148862B6704772B6704772B61A4ABE
:1009F0001068EFF3098121E9F00F016017480068E2
:100A000010600068B0E8F00F80F309884EF0040E23
:100A100062B670471EF0040F0CBFEFF30880EFF3CF
:100A20000980806910F8020C30B9EFF3148121F0CD
:100A3000010181F3148805E0012803D100B500F01D
:100A400002F8FFE700BD064880F30988704700BF41
:100A5000CB090000D70900001C0000102000001086
:100A6000300A0010840A0000000000102401000079
:100A700008010000A80B000024010010F40E000083
:100A80002401000000093D000000000000000000FB
:100A90000000000000000000000000000000000056
:100AA0000000000000000000080706060505050517
:100AB00004040404040404040303030303030303FE
:100AC00003030303030303030202020202020202FE
:100AD00002020202020202020202020202020202F6
:100AE00002020202020202020101010101010101EE
:100AF00001010101010101010101010101010101E6
:100B000001010101010101010101010101010101D5
:100B100001010101010101010101010101010101C5
:100B200001010101010101010000000000000000BD
:100B300000000000000000000000000000000000B5
:100B400000000000000000000000000000000000A5
:100B50000000000000000000000000000000000095
:100B60000000000000000000000000000000000085
:100B70000000000000000000000000000000000075
:100B80000000000000000000000000000000000065
:100B90000000000000000000000000000000000055
:080BA00000000000000000004D
:04000005000001698D
:00000001FF
